{
  "contractName": "Funder",
  "abi": [
    {
      "inputs": [],
      "stateMutability": "nonpayable",
      "type": "constructor"
    },
    {
      "inputs": [
        {
          "internalType": "uint256",
          "name": "",
          "type": "uint256"
        }
      ],
      "name": "contributers",
      "outputs": [
        {
          "internalType": "address",
          "name": "",
          "type": "address"
        }
      ],
      "stateMutability": "view",
      "type": "function",
      "constant": true
    },
    {
      "inputs": [],
      "name": "numOfFunders",
      "outputs": [
        {
          "internalType": "uint256",
          "name": "",
          "type": "uint256"
        }
      ],
      "stateMutability": "view",
      "type": "function",
      "constant": true
    },
    {
      "inputs": [],
      "name": "owner",
      "outputs": [
        {
          "internalType": "address",
          "name": "",
          "type": "address"
        }
      ],
      "stateMutability": "view",
      "type": "function",
      "constant": true
    },
    {
      "inputs": [],
      "name": "targetToAchieve",
      "outputs": [
        {
          "internalType": "uint256",
          "name": "",
          "type": "uint256"
        }
      ],
      "stateMutability": "view",
      "type": "function",
      "constant": true
    },
    {
      "inputs": [
        {
          "internalType": "uint256",
          "name": "",
          "type": "uint256"
        }
      ],
      "name": "users",
      "outputs": [
        {
          "internalType": "string",
          "name": "username",
          "type": "string"
        },
        {
          "internalType": "string",
          "name": "email",
          "type": "string"
        },
        {
          "internalType": "string",
          "name": "password",
          "type": "string"
        }
      ],
      "stateMutability": "view",
      "type": "function",
      "constant": true
    },
    {
      "inputs": [],
      "name": "usersCount",
      "outputs": [
        {
          "internalType": "uint256",
          "name": "",
          "type": "uint256"
        }
      ],
      "stateMutability": "view",
      "type": "function",
      "constant": true
    },
    {
      "inputs": [
        {
          "internalType": "string",
          "name": "em",
          "type": "string"
        },
        {
          "internalType": "string",
          "name": "pass",
          "type": "string"
        }
      ],
      "name": "getUser",
      "outputs": [
        {
          "internalType": "bool",
          "name": "",
          "type": "bool"
        }
      ],
      "stateMutability": "view",
      "type": "function",
      "constant": true
    },
    {
      "inputs": [
        {
          "internalType": "string",
          "name": "_username",
          "type": "string"
        },
        {
          "internalType": "string",
          "name": "_email",
          "type": "string"
        },
        {
          "internalType": "string",
          "name": "password",
          "type": "string"
        }
      ],
      "name": "createUser",
      "outputs": [],
      "stateMutability": "nonpayable",
      "type": "function"
    },
    {
      "inputs": [],
      "name": "getOwner",
      "outputs": [
        {
          "internalType": "address",
          "name": "",
          "type": "address"
        }
      ],
      "stateMutability": "view",
      "type": "function",
      "constant": true
    },
    {
      "inputs": [],
      "name": "transfer",
      "outputs": [],
      "stateMutability": "payable",
      "type": "function",
      "payable": true
    },
    {
      "inputs": [],
      "name": "contibute",
      "outputs": [],
      "stateMutability": "payable",
      "type": "function",
      "payable": true
    },
    {
      "inputs": [
        {
          "internalType": "uint256",
          "name": "withdrawAmount",
          "type": "uint256"
        }
      ],
      "name": "withdraw",
      "outputs": [],
      "stateMutability": "nonpayable",
      "type": "function"
    }
  ],
  "bytecode": "0x60806040526000600155600060025534801561001a57600080fd5b5033600360006101000a81548173ffffffffffffffffffffffffffffffffffffffff021916908373ffffffffffffffffffffffffffffffffffffffff1602179055506113248061006b6000396000f3fe6080604052600436106100a75760003560e01c8063893d20e811610064578063893d20e8146101e25780638a4068dd1461020d5780638da5cb5b14610217578063af7f2c9b14610242578063b2a87fc31461026d578063ea25213f14610298576100a7565b80631fbed579146100ac5780632e1a7d4d146100e9578063365b98b21461011257806359ae069b146101515780636ba13a821461017a57806383e6858f146101a5575b600080fd5b3480156100b857600080fd5b506100d360048036038101906100ce9190610a0d565b6102a2565b6040516100e09190610a7b565b60405180910390f35b3480156100f557600080fd5b50610110600480360381019061010b9190610a0d565b6102e1565b005b34801561011e57600080fd5b5061013960048036038101906101349190610a0d565b6103cf565b60405161014893929190610b2f565b60405180910390f35b34801561015d57600080fd5b5061017860048036038101906101739190610cb0565b6105a1565b005b34801561018657600080fd5b5061018f61064e565b60405161019c9190610d66565b60405180910390f35b3480156101b157600080fd5b506101cc60048036038101906101c79190610d81565b610654565b6040516101d99190610e14565b60405180910390f35b3480156101ee57600080fd5b506101f76108d9565b6040516102049190610a7b565b60405180910390f35b610215610903565b005b34801561022357600080fd5b5061022c61091f565b6040516102399190610a7b565b60405180910390f35b34801561024e57600080fd5b50610257610945565b6040516102649190610d66565b60405180910390f35b34801561027957600080fd5b5061028261094b565b60405161028f9190610d66565b60405180910390f35b6102a0610951565b005b600581815481106102b257600080fd5b906000526020600020016000915054906101000a900473ffffffffffffffffffffffffffffffffffffffff1681565b671bc16d674ec8000081111580156103465750600360009054906101000a900473ffffffffffffffffffffffffffffffffffffffff1673ffffffffffffffffffffffffffffffffffffffff163373ffffffffffffffffffffffffffffffffffffffff16145b610385576040517f08c379a000000000000000000000000000000000000000000000000000000000815260040161037c90610ea1565b60405180910390fd5b3373ffffffffffffffffffffffffffffffffffffffff166108fc829081150290604051600060405180830381858888f193505050501580156103cb573d6000803e3d6000fd5b5050565b600081815481106103df57600080fd5b906000526020600020906003020160009150905080600001805461040290610ef0565b80601f016020809104026020016040519081016040528092919081815260200182805461042e90610ef0565b801561047b5780601f106104505761010080835404028352916020019161047b565b820191906000526020600020905b81548152906001019060200180831161045e57829003601f168201915b50505050509080600101805461049090610ef0565b80601f01602080910402602001604051908101604052809291908181526020018280546104bc90610ef0565b80156105095780601f106104de57610100808354040283529160200191610509565b820191906000526020600020905b8154815290600101906020018083116104ec57829003601f168201915b50505050509080600201805461051e90610ef0565b80601f016020809104026020016040519081016040528092919081815260200182805461054a90610ef0565b80156105975780601f1061056c57610100808354040283529160200191610597565b820191906000526020600020905b81548152906001019060200180831161057a57829003601f168201915b5050505050905083565b60006040518060600160405280858152602001848152602001838152509050600160008154809291906105d390610f50565b9190505550600081908060018154018082558091505060019003906000526020600020906003020160009091909190915060008201518160000190816106199190611144565b50602082015181600101908161062f9190611144565b5060408201518160020190816106459190611144565b50505050505050565b60015481565b600080600154905060005b60015481101561079857600080828154811061067e5761067d611216565b5b9060005260206000209060030201600101805461069a90610ef0565b80601f01602080910402602001604051908101604052809291908181526020018280546106c690610ef0565b80156107135780601f106106e857610100808354040283529160200191610713565b820191906000526020600020905b8154815290600101906020018083116106f657829003601f168201915b50505050509050855181511480156107765750856040516020016107379190611281565b604051602081830303815290604052805190602001208160405160200161075e9190611281565b60405160208183030381529060405280519060200120145b156107845781925050610798565b818061078f90610f50565b9250505061065f565b60015482146108c55760008083815481106107b6576107b5611216565b5b906000526020600020906003020160020180546107d290610ef0565b80601f01602080910402602001604051908101604052809291908181526020018280546107fe90610ef0565b801561084b5780601f106108205761010080835404028352916020019161084b565b820191906000526020600020905b81548152906001019060200180831161082e57829003601f168201915b50505050509050805185511480156108ae57508060405160200161086f9190611281565b60405160208183030381529060405280519060200120856040516020016108969190611281565b60405160208183030381529060405280519060200120145b156108bf57600193505050506108d3565b506108d0565b6000925050506108d3565b50505b92915050565b6000600360009054906101000a900473ffffffffffffffffffffffffffffffffffffffff16905090565b6001600260008282546109169190611298565b92505081905550565b600360009054906101000a900473ffffffffffffffffffffffffffffffffffffffff1681565b60025481565b60045481565b6002341161095e57600080fd5b6005339080600181540180825580915050600190039060005260206000200160009091909190916101000a81548173ffffffffffffffffffffffffffffffffffffffff021916908373ffffffffffffffffffffffffffffffffffffffff160217905550565b6000604051905090565b600080fd5b600080fd5b6000819050919050565b6109ea816109d7565b81146109f557600080fd5b50565b600081359050610a07816109e1565b92915050565b600060208284031215610a2357610a226109cd565b5b6000610a31848285016109f8565b91505092915050565b600073ffffffffffffffffffffffffffffffffffffffff82169050919050565b6000610a6582610a3a565b9050919050565b610a7581610a5a565b82525050565b6000602082019050610a906000830184610a6c565b92915050565b600081519050919050565b600082825260208201905092915050565b60005b83811015610ad0578082015181840152602081019050610ab5565b83811115610adf576000848401525b50505050565b6000601f19601f8301169050919050565b6000610b0182610a96565b610b0b8185610aa1565b9350610b1b818560208601610ab2565b610b2481610ae5565b840191505092915050565b60006060820190508181036000830152610b498186610af6565b90508181036020830152610b5d8185610af6565b90508181036040830152610b718184610af6565b9050949350505050565b600080fd5b600080fd5b7f4e487b7100000000000000000000000000000000000000000000000000000000600052604160045260246000fd5b610bbd82610ae5565b810181811067ffffffffffffffff82111715610bdc57610bdb610b85565b5b80604052505050565b6000610bef6109c3565b9050610bfb8282610bb4565b919050565b600067ffffffffffffffff821115610c1b57610c1a610b85565b5b610c2482610ae5565b9050602081019050919050565b82818337600083830152505050565b6000610c53610c4e84610c00565b610be5565b905082815260208101848484011115610c6f57610c6e610b80565b5b610c7a848285610c31565b509392505050565b600082601f830112610c9757610c96610b7b565b5b8135610ca7848260208601610c40565b91505092915050565b600080600060608486031215610cc957610cc86109cd565b5b600084013567ffffffffffffffff811115610ce757610ce66109d2565b5b610cf386828701610c82565b935050602084013567ffffffffffffffff811115610d1457610d136109d2565b5b610d2086828701610c82565b925050604084013567ffffffffffffffff811115610d4157610d406109d2565b5b610d4d86828701610c82565b9150509250925092565b610d60816109d7565b82525050565b6000602082019050610d7b6000830184610d57565b92915050565b60008060408385031215610d9857610d976109cd565b5b600083013567ffffffffffffffff811115610db657610db56109d2565b5b610dc285828601610c82565b925050602083013567ffffffffffffffff811115610de357610de26109d2565b5b610def85828601610c82565b9150509250929050565b60008115159050919050565b610e0e81610df9565b82525050565b6000602082019050610e296000830184610e05565b92915050565b7f43616e6e6f74207769746864726177206d6f7265207468616e2032206574686560008201527f7200000000000000000000000000000000000000000000000000000000000000602082015250565b6000610e8b602183610aa1565b9150610e9682610e2f565b604082019050919050565b60006020820190508181036000830152610eba81610e7e565b9050919050565b7f4e487b7100000000000000000000000000000000000000000000000000000000600052602260045260246000fd5b60006002820490506001821680610f0857607f821691505b602082108103610f1b57610f1a610ec1565b5b50919050565b7f4e487b7100000000000000000000000000000000000000000000000000000000600052601160045260246000fd5b6000610f5b826109d7565b91507fffffffffffffffffffffffffffffffffffffffffffffffffffffffffffffffff8203610f8d57610f8c610f21565b5b600182019050919050565b60008190508160005260206000209050919050565b60006020601f8301049050919050565b600082821b905092915050565b600060088302610ffa7fffffffffffffffffffffffffffffffffffffffffffffffffffffffffffffffff82610fbd565b6110048683610fbd565b95508019841693508086168417925050509392505050565b6000819050919050565b600061104161103c611037846109d7565b61101c565b6109d7565b9050919050565b6000819050919050565b61105b83611026565b61106f61106782611048565b848454610fca565b825550505050565b600090565b611084611077565b61108f818484611052565b505050565b5b818110156110b3576110a860008261107c565b600181019050611095565b5050565b601f8211156110f8576110c981610f98565b6110d284610fad565b810160208510156110e1578190505b6110f56110ed85610fad565b830182611094565b50505b505050565b600082821c905092915050565b600061111b600019846008026110fd565b1980831691505092915050565b6000611134838361110a565b9150826002028217905092915050565b61114d82610a96565b67ffffffffffffffff81111561116657611165610b85565b5b6111708254610ef0565b61117b8282856110b7565b600060209050601f8311600181146111ae576000841561119c578287015190505b6111a68582611128565b86555061120e565b601f1984166111bc86610f98565b60005b828110156111e4578489015182556001820191506020850194506020810190506111bf565b8683101561120157848901516111fd601f89168261110a565b8355505b6001600288020188555050505b505050505050565b7f4e487b7100000000000000000000000000000000000000000000000000000000600052603260045260246000fd5b600081905092915050565b600061125b82610a96565b6112658185611245565b9350611275818560208601610ab2565b80840191505092915050565b600061128d8284611250565b915081905092915050565b60006112a3826109d7565b91506112ae836109d7565b9250827fffffffffffffffffffffffffffffffffffffffffffffffffffffffffffffffff038211156112e3576112e2610f21565b5b82820190509291505056fea264697066735822122073aa04d8c9fe9d71a1dfc73a9c1bc34db7152d0da992d297039fa4c0675cc62a64736f6c634300080f0033",
  "immutableReferences": {},
  "source": "// SPDX-License-Identifier: MIT\r\npragma solidity >=0.4.22 <0.9.0;\r\n\r\ncontract Funder {\r\n     struct user{\r\n        string username;\r\n        string email;\r\n        string password;\r\n     }\r\n\r\n     user[] public users;\r\n      uint public usersCount=0;\r\n      \r\n    \r\n    function getUser(string memory em, string memory pass)public view returns(bool){\r\n      uint p =usersCount;\r\n        uint i=0;\r\n        while(i<usersCount){\r\n          string memory curr=users[i].email;\r\n          if(bytes(curr).length == bytes(em).length && \r\n          keccak256(abi.encodePacked(curr)) == keccak256(abi.encodePacked(em))){    p=i;\r\n             \r\n            break;\r\n            }\r\n          \r\n            i++;\r\n        }\r\n       \r\n        if(p!=usersCount){\r\n         string memory pss=users[p].password;          \r\n            if(bytes(pass).length == bytes(pss).length && \r\n          keccak256(abi.encodePacked(pass)) == keccak256(abi.encodePacked(pss)))return true;\r\n        }\r\n        else return false;\r\n    }\r\n      \r\n\r\n    function createUser(string memory _username,string memory _email,string memory password) public  {\r\n        user memory newUser = user({\r\n         email:_email,\r\n         username:_username,\r\n         password:password\r\n      });\r\n       usersCount++;\r\n      users.push(newUser);\r\n    }\r\n/// contribution/////\r\n    struct contribution {\r\n      address useraddress;\r\n      string username;\r\n      string email;\r\n      uint amount;\r\n    }\r\n\r\n    uint256 public numOfFunders=0;\r\n    address public owner;\r\n    uint public targetToAchieve;\r\n    address[] public contributers;\r\n    \r\n    constructor(){\r\n        owner=msg.sender;\r\n    }\r\n\r\n    // mapping(uint256 => address) private funders;\r\n    \r\n\r\n   function getOwner() public view returns(address) {    \r\n        return owner;\r\n    }\r\n    \r\nfunction transfer() external payable {\r\n       numOfFunders+=1;\r\n    }\r\n       function contibute() public payable {\r\n      require(msg.value > 2 );\r\n\r\n      contributers.push(msg.sender);\r\n    //   approvers[msg.sender] = true;\r\n    //   approversCount++;\r\n  }\r\n\r\n\r\n    function withdraw(uint256 withdrawAmount) external {\r\n        require(\r\n            withdrawAmount <= 2000000000000000000 && msg.sender==owner,\r\n            \"Cannot withdraw more than 2 ether\"\r\n        );\r\n        payable(msg.sender).transfer(withdrawAmount);\r\n    }\r\n}\r\n",
  "sourcePath": "H:\\Block chain\\Projects\\Funds\\contracts\\Funder.sol",
  "compiler": {
    "name": "solc",
    "version": "0.8.15+commit.e14f2714.Emscripten.clang"
  },
  "schemaVersion": "3.4.8",
  "updatedAt": "2022-10-11T17:37:49.163Z",
  "networkType": "ethereum",
  "devdoc": {
    "kind": "dev",
    "methods": {},
    "version": 1
  },
  "userdoc": {
    "kind": "user",
    "methods": {},
    "version": 1
  }
}